:02000000EC2AE8
:1000060083120313B603B6033608003C0318102800
:10001600B6030000000000000728000000000000F2
:06002600000000000800CC
:10002C0083120313F801F9011030FC00710DF80D67
:10003C00F90D7408F8027508031C750FF902031802
:10004C002E287408F80775080318750FF9070310A4
:0A005C00F00DF10DFC0B1C2808004C
:0E0066008312031324088A0023088200080076
:10007400831203132230FC00F801F901FA01FB0199
:10008400FC03031970280310FB0CFA0CF90CF80C90
:10009400F30CF20CF10CF00C031C4228FC030319C2
:1000A40062287408F80775080318750FF9077608AD
:1000B4000318760FFA0777080318770FFB0746280B
:1000C4007408F80775080318750FF90776080318FC
:0E00D400760FFA0777080318770FFB0708006E
:1000E200A03083120313F0000F30F100F201F3018C
:0200F200080004
:1000F40083120313FB01FA01F901F801A001730D46
:10010400F80D7408F8027508031C750FF9027608D7
:10011400031C760FFA027708031C770FFB02000119
:10012400031C0130A002F30D0730FC00730DF80D21
:10013400F90DFA0DFB0DA00D7408731CB328F80219
:100144007508031C750FF9027608031C760FFA0272
:100154007708031C770FFB020001031C0130A00287
:10016400C428F80775080318750FF90776080318EB
:10017400760FFA0777080318770FFB0700010318B7
:100184000130A007F30DFC0B9828720DF80DF90D42
:10019400FA0DFB0DA00D7408731CE228F802750813
:1001A400031C750FF9027608031C760FFA02770810
:1001B400031C770FFB020001031C0130A002F3288B
:1001C400F80775080318750FF90776080318760FF2
:1001D400FA0777080318770FFB07000103180130AB
:1001E400A007F20D0730FC00720DF80DF90DFA0DA1
:1001F400FB0DA00D7408721C1129F8027508031C6C
:10020400750FF9027608031C760FFA027708031CAF
:10021400770FFB020001031C0130A0022229F8071A
:1002240075080318750FF90776080318760FFA078F
:1002340077080318770FFB07000103180130A007A4
:10024400F20DFC0BF628710DF80DF90DFA0DFB0DEE
:10025400A00D7408721C4029F8027508031C750F60
:10026400F9027608031C760FFA027708031C770F4D
:10027400FB020001031C0130A0025129F807750894
:100284000318750FF90776080318760FFA0777082D
:100294000318770FFB07000103180130A007F10DC5
:1002A4000730FC00710DF80DF90DFA0DFB0DA00DD2
:1002B4007408711C6F29F8027508031C750FF90284
:1002C4007608031C760FFA027708031C770FFB02EB
:1002D4000001031C0130A0028029F80775080318E7
:1002E400750FF90776080318760FFA0777080318CD
:1002F400770FFB07000103180130A007F10DFC0B79
:100304005429700DF80DF90DFA0DFB0DA00D7408AC
:10031400711C9E29F8027508031C750FF9027608F2
:10032400031C760FFA027708031C770FFB02000107
:10033400031C0130A002AF29F80775080318750FD4
:10034400F90776080318760FFA0777080318770F6A
:10035400FB07000103180130A007F00D0730FC0073
:10036400700DF80DF90DFA0DFB0DA00D7408701C3D
:10037400CD29F8027508031C750FF9027608031CD1
:10038400760FFA027708031C770FFB020001031CA7
:100394000130A002DE29F80775080318750FF90764
:1003A40076080318760FFA0777080318770FFB0708
:1003B400000103180130A007F00DFC0BB2297018DE
:1003C400F1297408F80775080318750FF9077608FA
:1003D4000318760FFA0777080318770FFB0708004E
:1003E400831203132A08A5002B08F1000130F00042
:1003F40071080319012AF00D7010FF3EFB297008E3
:10040400A600F0097008A70080302A07840070084D
:0A04140080058413700880050800BD
:10041E007120E830F4000330F500F601F7013A20C0
:10042E007008B2007108B3007208B4007308B5000A
:10043E002A08F4002B08F500F601F7017A2070085F
:10044E00B2007108B3007208B4007308B5007008EA
:10045E00F5007108F6007208F7007308F800F80C42
:10046E00F70CF60CF50CF813F80CF70CF60CF50C63
:10047E00F8137508F0007608F1007708F200780896
:10048E00F300F30CF20CF10CF00CF3137008AE0049
:10049E007108AF0071202C08F4002D08F500F6014C
:1004AE00F7013A202E08F9002F08FA00FB01FC0193
:1004BE000330F8007908F4007A08F5007B08F6009E
:1004CE007C08F70078080319732AF40DF50DF60D64
:1004DE00F70D7410FF3E6A2A7A207008B200710878
:1004EE00B3007208B4007308B5000A30F40000308F
:1004FE00F5002E08F0002F08F10016207008AE004F
:10050E007108AF0000307102031D8F2A0330700294
:10051E000318922ADF2A250884003508003C031DA3
:10052E00A22A3408003C031DA22A3308003C031DF6
:10053E00A22A3208003C0318DD2A260880042F0860
:10054E000319B92AB001B10100303102031DB12ADD
:10055E002F0830020318B92AB6010320B00A031976
:10056E00B10AAB2A2E08B6000320270880052F08F3
:10057E000319D12AB001B10100303102031DC92A7D
:10058E002F0830020318D12AB6010320B00A03192E
:10059E00B10AC32A2E08B60003200130B202031C92
:1005AE00B302031CB402031CB502942A270880056B
:0205BE00080033
:1005C00033208A110A128000840AA30A0319A40A9C
:0805D000F003031DE02A0800FE
:1005D80083120313A101A201F030831686000230B2
:1005E80085008312860185010530AA00AB01F2213E
:1005F80000302206031D022B00302106031D402C6B
:100608000130A1000030A2000330FB008A30FC005A
:100618005530FD00FD0B0E2BFC0B0E2BFB0B0E2B90
:100628000000000006148614061186118430AA0002
:10063800AB012C30AC000130AD000F220630FB00BE
:100648001330FC00AD30FD00FD0B282BFC0B282BD4
:10065800FB0B282B000000000610861006158615D7
:100668004630AA000030AB002C30AC000130AD00A1
:100678000F220730FB001730FC006A30FD00FD0B2D
:10068800432BFC0B432BFB0B432B00000614861457
:1006980006158615B430AA00AB012C30AC00013029
:1006A800AD000F220830FB001B30FC002730FD0096
:1006B800FD0B5C2BFC0B5C2BFB0B5C2B06108610DC
:1006C800061186110330FB004930FC006630FD003E
:1006D800FD0B6C2BFC0B6C2BFB0B6C2B0000A8018F
:1006E800A90180302906F00080307002031D7E2B9E
:1006F800053028020318082C06142930AA000030F7
:10070800AB00C830AC00AD010F226830FC00E4300B
:10071800FD00FD0B8D2BFC0B8D2B0000AA01AB01FE
:10072800AC01AD010F226830FC00E430FD00FD0B88
:100738009B2BFC0B9B2B0000061086155530AA003E
:100748000030AB00C830AC00AD010F226830FC00AF
:10075800E430FD00FD0BAE2BFC0BAE2B0000AA0114
:10076800AB01AC01AD010F226830FC00E430FD00A4
:10077800FD0BBC2BFC0BBC2B0000861186147430BF
:10078800AA000030AB00C830AC00AD010F226830C1
:10079800FC00E430FD00FD0BCF2BFC0BCF2B000041
:1007A800AA01AB01AC01AD010F226830FC00E430B6
:1007B800FD00FD0BDD2BFC0BDD2B00008610061564
:1007C800B630AA00AB012C30AC000130AD000F22CE
:1007D8006830FC00E430FD00FD0BF02BFC0BF02B27
:1007E8000000AA01AB01AC01AD010F226830FC008A
:1007F800E430FD00FD0BFE2BFC0BFE2B0000061168
:10080800A80A0319A90A752BA801A901803029068D
:10081800F00080307002031D132C063028020318E4
:10082800402C06148614061586154630AA0000309A
:10083800AB002C30AC000130AD000F228230FC0040
:10084800DD30FD00FD0B262CFC0B262C00000000E3
:1008580006108610061186110230FB008630FC0057
:100868009930FD00FD0B362CFC0B362CFB0B362C7F
:0C087800A80A0319A90A0A2CFC2A412C2A
:02400E006A2125
:00000001FF
