:020000002D2FA2
:10000600831203132230FC00F801F901FA01FB0107
:10001600FC03031939280310FB0CFA0CF90CF80C35
:10002600F30CF20CF10CF00C031C0B28FC03031967
:100036002B287408F80775080318750FF907760852
:100046000318760FFA0777080318770FFB070F28B0
:100056007408F80775080318750FF907760803186A
:0E006600760FFA0777080318770FFB070800DC
:100074008316031320088312D900831621088312E0
:0C008400DA00DB01DC010130DF000800C5
:10009000710DF80DF90D7408F8027508031C750F41
:1000A000F902F00DF10D0F30FC00710DF80DF90D96
:1000B0007408701C6128F8027508031C750FF9029A
:1000C0006628F80775080318750FF907F00DF10D8C
:1000D000FC0B5528701872287408F8077508031867
:0800E000750FF907000008008C
:1000E800403083120313F0001F30F100F201F301D6
:0200F8000800FE
:1000FA0083120313F801F9011030FC00710DF80D99
:10010A00F90D7408F8027508031C750FF902031833
:10011A0095287408F80775080318750FF90703106E
:0A012A00F00DF10DFC0B8328080016
:1001340083160313A003A0032008003C0318A72878
:10014400A0030000000000009E2800000000000042
:060154000000000008009D
:10015A0083120313FB01FA01F901F801A001730DDF
:10016A00F80D7408F8027508031C750FF902760871
:10017A00031C760FFA027708031C770FFB020001B3
:10018A00031C0130A002F30D0730FC00730DF80DBB
:10019A00F90DFA0DFB0DA00D7408731CE628F80280
:1001AA007508031C750FF9027608031C760FFA020C
:1001BA007708031C770FFB020001031C0130A00221
:1001CA00F728F80775080318750FF9077608031852
:1001DA00760FFA0777080318770FFB070001031851
:1001EA000130A007F30DFC0BCB28720DF80DF90DA9
:1001FA00FA0DFB0DA00D7408731C1529F802750879
:10020A00031C750FF9027608031C760FFA027708A9
:10021A00031C770FFB020001031C0130A0022629F0
:10022A00F80775080318750FF90776080318760F8B
:10023A00FA0777080318770FFB0700010318013044
:10024A00A007F20D0730FC00720DF80DF90DFA0D3A
:10025A00FB0DA00D7408721C4429F8027508031CD2
:10026A00750FF9027608031C760FFA027708031C49
:10027A00770FFB020001031C0130A0025529F80781
:10028A0075080318750FF90776080318760FFA0729
:10029A0077080318770FFB07000103180130A0073E
:1002AA00F20DFC0B2929710DF80DF90DFA0DFB0D54
:1002BA00A00D7408721C7329F8027508031C750FC7
:1002CA00F9027608031C760FFA027708031C770FE7
:1002DA00FB020001031C0130A0028429F8077508FB
:1002EA000318750FF90776080318760FFA077708C7
:1002FA000318770FFB07000103180130A007F10D5F
:10030A000730FC00710DF80DF90DFA0DFB0DA00D6B
:10031A007408711CA229F8027508031C750FF902EA
:10032A007608031C760FFA027708031C770FFB0284
:10033A000001031C0130A002B329F807750803184D
:10034A00750FF90776080318760FFA077708031866
:10035A00770FFB07000103180130A007F10DFC0B12
:10036A008729700DF80DF90DFA0DFB0DA00D740813
:10037A00711CD129F8027508031C750FF902760859
:10038A00031C760FFA027708031C770FFB020001A1
:10039A00031C0130A002E229F80775080318750F3B
:1003AA00F90776080318760FFA0777080318770F04
:1003BA00FB07000103180130A007F00D0730FC000D
:1003CA00700DF80DF90DFA0DFB0DA00D7408701CD7
:1003DA00002AF8027508031C750FF9027608031C37
:1003EA00760FFA027708031C770FFB020001031C41
:1003FA000130A002112AF80775080318750FF907CA
:10040A0076080318760FFA0777080318770FFB07A1
:10041A00000103180130A007F00DFC0BE529701844
:10042A00242A7408F80775080318750FF90776085F
:10043A000318760FFA0777080318770FFB070800E7
:0E044A008312031361088A0060088200080014
:100458007420E830F4000330F500F601F7010320BA
:100468007008EC007108ED007208EE007308EF00E8
:100478006408F4006508F500F601F701AD2070087E
:10048800EC007108ED007208EE007308EF007008C8
:10049800F5007108F6007208F7007308F800F80C08
:1004A800F70CF60CF50CF813F80CF70CF60CF50C29
:1004B800F8137508F0007608F1007708F20078085C
:1004C800F300F30CF20CF10CF00CF3137008E800D5
:1004D8007108E90074206608F4006708F500F60161
:1004E800F70103206808F9006908FA00FB01FC011C
:1004F8000330F8007908F4007A08F5007B08F60064
:100508007C08F70078080319902AF40DF50DF60D0C
:10051800F70D7410FF3E872AAD207008EC007108B3
:10052800ED007208EE007308EF000A30F4000030A6
:10053800F5006808F0006908F1007D207008E800FF
:100548007108E90000307102031DAC2A0330700203
:100558000318AF2A042B580884006F08003C031DB9
:10056800BF2A6E08003C031DBF2A6D08003C031D0E
:10057800BF2A6C08003C0318022B5E088004690837
:100588000319D82AEA01EB0100306B02031DCE2AB9
:1005980069086A020318D82A8316A0019A208312D0
:1005A800EA0A0319EB0AC82A68088316A0009A20E9
:1005B80083125D08800569080319F42AEA01EB0132
:1005C80000306B02031DEA2A69086A020318F42A3C
:1005D8008316A0019A208312EA0A0319EB0AE42A77
:1005E80068088316A0009A2001308312EC02031CCD
:1005F800ED02031CEE02031CEF02B12A5D08800520
:020608000800E8
:10060A00831203137408003A031D142B7508003A69
:10061A00031D142BFF30F0007F30F1006D2B831285
:10062A000313FD01F901F80171087004031900347C
:10063A0071087506FA00FA1BFD09FB01F51F2A2B42
:10064A00F409F509F40A0319F50AF11F312BF00927
:10065A00F109F00A0319F10A71087504FA00FA1B84
:10066A00462B48207B18592BFD1F0034F009F1094D
:10067A00F00A0319F10AF809F909F80A0319F90A3B
:10068A000034F51F552BF11B512B7108F900700826
:10069A00F800F101F001392BF101F001F00A003400
:1006AA00F109F009FB0A362BF80A0319F90A74084A
:1006BA007802031D392B75087902031D392BF901BC
:1006CA00F801F00A0319F10AF11F392B0000FF346F
:0206DA00080016
:1006DC00831203135F08031D792B01308316A000CE
:1006EC000030A1003A205908F0005A08F1005B08CC
:1006FC00F2005C08F3006D30F4004E30F500C630AB
:10070C00F6004130F70003203930F5003030F600A8
:10071C00F701F8017008F50771080318710FF60757
:10072C0072080318720FF70773080318730FF80792
:10073C007708F0007808F1000030F81BFF30F20069
:10074C00F300FF30F0057F30F1050030F205F305C2
:10075C007008D9007108DA007208DB007308DC003D
:02076C00080083
:0E076E00831203130610861106118610080070
:10077C00D03083120313FC00C930FD00FD0BC42BD9
:10078C00FC0BC42B00000000061486140611861105
:10079C00A230E4000330E5008C30E600E7012C22A7
:1007AC000230FB006C30FC009F30FD00FD0BDC2B9D
:1007BC00FC0BDC2BFB0BDC2B000000000610861066
:1007CC00061586150730E4000330E500B430E6006A
:1007DC00E7012C220230FB00D430FC008530FD00F8
:1007EC00FD0BF62BFC0BF62BFB0BF62B06148614D1
:1007FC00061586151A30E4000430E500C830E60012
:10080C00E7012C220330FB000830FC007730FD00A0
:10081C00FD0B0E2CFC0B0E2CFB0B0E2C061086105D
:10082C0006118611D030FC00C930FD00FD0B1C2CCC
:10083C00FC0B1C2C00000000D501D60180305606A4
:10084C00F00080307002031D2D2C0530550203186A
:10085C00872C06140611BF30E4000230E50023306B
:10086C00E6000030E7002C225B30FC00E730FD0096
:10087C00FD0B3E2CFC0B3E2C0000000006108615D8
:10088C002C30E4000330E5002330E6000030E700B4
:10089C002C225B30FC00E730FD00FD0B532CFC0BD5
:1008AC00532C00000000861186147A30E4000330CB
:1008BC00E5002330E6000030E7002C225B30FC0022
:1008CC00E730FD00FD0B682CFC0B682C00000000D1
:1008DC00861006151F30E4000430E5002330E600D6
:1008EC000030E7002C225B30FC00E730FD00FD0BF4
:1008FC007D2CFC0B7D2C00000000D50A0319D60AB8
:10090C00242CD501D60180305606F00080307002C0
:10091C00031D922C063055020318D32C861586190C
:10092C00992C06119A2C061506199E2C86109F2CB4
:10093C0086148618A32C0610A42C06140730E40089
:10094C000330E5005030E6000030E7002C22343054
:10095C00FC00F130FD00FD0BB12CFC0BB12C0000A8
:10096C00000086118619BC2C0611BD2C0615061923
:10097C00C12C8610C22C86148618C62C0610C72CC7
:10098C0006149C30FC00D730FD00FD0BCB2CFC0B6F
:0C099C00CB2CD50A0319D60A892C0800C0
:1009A8008030831203132406F00080302206700280
:1009B800031DE02C210823020318D52E2508260440
:1009C8000319D52E2308F0002408F100F00DF10DCD
:1009D800701070082D3EE2006E230430F4000030E1
:1009E800F50005237808F0007908F1006208840012
:1009F800700880007108840A8000D70180302406BE
:100A0800F00080307002031D0B2D57082302031CD1
:100A1800AB2D5708F000F00D701070082D3EE20065
:100A2800412D06141F30E4000430E5005030E60084
:100A38000030E7002C227D2D8614CF30E4000330EF
:100A4800E5005030E6000030E7002C227D2D8615A9
:100A58008430E4000330E5005030E6000030E70061
:100A68002C227D2D06153930E4000330E500503086
:100A7800E6000030E7002C227D2D62088400000883
:100A8800F100840A0008F20000307206031D4E2DA2
:100A9800003071060319152D620884000008F10062
:100AA800840A0008F20000307206031D5D2D013033
:100AB80071060319202D620884000008F100840AD9
:100AC8000008F20000307206031D6C2D023071061A
:100AD80003192B2D620884000008F100840A00081D
:100AE800F20000307206031D7B2D033071060319D6
:100AF800362D0530FB00DF30FC00BB30FD00FD0B60
:100B0800832DFC0B832DFB0B832D00000000861129
:100B18008619902D0611912D06150619952D86100A
:100B2800962D861486189A2D06109B2D06140430CF
:100B3800FB00A830FC000B30FD00FD0BA12DFC0BC9
:100B4800A12DFB0BA12D00000000D70A022D0830B3
:100B5800FB001B30FC002730FD00FD0BB12DFC0B0A
:100B6800B12DFB0BB12DA901AA01A701A801803065
:100B78002406F00080302A067002031DC52D2908BE
:100B88002302031CB72E250826040319B72E2B08A9
:100B98002C04031D8F2E27082804031D8F2E061EE4
:100BA800FD2D0130AB000030AC0006141F30E4000E
:100BB8000430E5005030E6000030E7002C22290818
:100BC800F0002A08F100F00DF10D701070082D3EAC
:100BD80084000008F100840A0008F2000030720660
:100BE800031DF82D003071060319FC2DA501A6017F
:100BF8007A2E861E272E0130AB000030AC008614FA
:100C0800CF30E4000330E5005030E6000030E70064
:100C18002C222908F0002A08F100F00DF10D7010BF
:100C280070082D3E84000008F100840A0008F200D4
:100C380000307206031D222E013071060319262E7C
:100C4800A501A6017A2E861F512E0130AB00003077
:100C5800AC0086158430E4000330E5005030E6002F
:100C68000030E7002C222908F0002A08F100F00DD6
:100C7800F10D701070082D3E84000008F100840A00
:100C88000008F20000307206031D4C2E0230710677
:100C98000319502EA501A6017A2E061F7A2E0130BF
:100CA800AB000030AC0006153930E4000330E50035
:100CB8005030E6000030E7002C222908F0002A080E
:100CC800F100F00DF10D701070082D3E8400000841
:100CD800F100840A0008F20000307206031D762E27
:100CE8000330710603197A2EA501A6012B082C04DE
:100CF80003198E2E0230FB003830FC00AD30FD00A9
:100D0800FD0B842EFC0B842EFB0B842E0130A700D8
:100D18000030A800B62E2B082C040319B62E27087D
:100D280028040319B62E061AB62E861AB62E861B66
:100D3800B62E061BB62EAB01AC01A701A801A90A65
:100D48000319AA0A06110619AB2E8611AC2E8615B0
:100D58008619B02E8610B12E86148618B52E061068
:100D6800B62E0614BB2D0830FB001B30FC002730C4
:100D7800FD00FD0BBD2EFC0BBD2EFB0BBD2EA30AEB
:100D88000319A40A0530FB00DF30FC00BB30FD006E
:100D9800FD0BCC2EFC0BCC2EFB0BCC2E0000000048
:040DA800D42C08003F
:100DAC0083120313A301A401A901AA010130A50018
:0E0DBC000030A600AB01AC01A701A8010800A1
:100DCA0083120313E201E3010615061BFA2E033010
:100DDA00FC009730FD00FD0BF02EFC0BF02E0000FE
:100DEA000000E20A0319E30AEA2E061162088316D2
:0E0DFA00A000831263088316A1003A200800AF
:100E0800831203136208D8006308F1000130F00070
:100E180071080319132FF00D7010FF3E0D2F700885
:100E2800DE00F0097008DD00803062078400700879
:0A0E3800800584137008800508008F
:100E420025228A110A128000840AE00A0319E10AA3
:080E5200F003031D212F08002D
:100E5A00033083120313A100A201A301A4010130EC
:100E6A00A500A601A701A801A901AA01AB01AC012D
:100E7A00F030831686000230850083128601013025
:100E8A0085000530E200E3010427E526BE2305308C
:100E9A00FB000F30FC00F130FD00FD0B522FFC0B64
:100EAA00522FFB0B522FD424250826040319B02FE6
:100EBA008430E4000330E5003C30E6000030E7000F
:100ECA002C229C30FC00D730FD00FD0B6A2FFC0B56
:100EDA006A2F0630E4000430E5003C30E6000030BA
:100EEA00E7002C229C30FC00D730FD00FD0B7B2F45
:100EFA00FC0B7B2FC430E4000430E5003C30E600F4
:100F0A000030E7002C229C30FC00D730FD00FD0B9E
:100F1A008C2FFC0B8C2FA301A401A901AA0101307B
:100F2A00A5000030A600AB01AC01A701A801A10AE7
:100F3A000319A20AB72380302206F000803070021B
:100F4A00031DA92F1E302102031CAF2F1E30A10042
:100F5A000030A200CB2FB72306148430E4000330FC
:100F6A00E500FA30E600E7012C220330FB008A3064
:100F7A00FC005530FD00FD0BC02FFC0BC02FFB0BF6
:100F8A00C02F000000000610D626B7234A2FCC2F08
:02400E0071211E
:00000001FF
