:02000000002FCF
:10000600831203132230FC00F801F901FA01FB0107
:10001600FC03031939280310FB0CFA0CF90CF80C35
:10002600F30CF20CF10CF00C031C0B28FC03031967
:100036002B287408F80775080318750FF907760852
:100046000318760FFA0777080318770FFB070F28B0
:100056007408F80775080318750FF907760803186A
:0E006600760FFA0777080318770FFB070800DC
:10007400831203136C08D5006D08D600D701D8018C
:060084000130DB00080062
:10008A00710DF80DF90D7408F8027508031C750F47
:10009A00F902F00DF10D0F30FC00710DF80DF90D9C
:1000AA007408701C5E28F8027508031C750FF902A3
:1000BA006328F80775080318750FF907F00DF10D95
:1000CA00FC0B522870186F287408F8077508031873
:0800DA00750FF9070000080092
:1000E200A03083120313F0000F30F100F201F3018C
:0200F200080004
:1000F40083120313F801F9011030FC00710DF80D9F
:10010400F90D7408F8027508031C750FF902031839
:1001140092287408F80775080318750FF907031077
:0A012400F00DF10DFC0B802808001F
:10012E0083120313EC03EC036C08003C0318A428A1
:10013E00EC030000000000009B28000000000000FF
:06014E00000000000800A3
:1001540083120313FB01FA01F901F801A001730DE5
:10016400F80D7408F8027508031C750FF902760877
:10017400031C760FFA027708031C770FFB020001B9
:10018400031C0130A002F30D0730FC00730DF80DC1
:10019400F90DFA0DFB0DA00D7408731CE328F80289
:1001A4007508031C750FF9027608031C760FFA0212
:1001B4007708031C770FFB020001031C0130A00227
:1001C400F428F80775080318750FF907760803185B
:1001D400760FFA0777080318770FFB070001031857
:1001E4000130A007F30DFC0BC828720DF80DF90DB2
:1001F400FA0DFB0DA00D7408731C1229F802750882
:10020400031C750FF9027608031C760FFA027708AF
:10021400031C770FFB020001031C0130A0022329F9
:10022400F80775080318750FF90776080318760F91
:10023400FA0777080318770FFB070001031801304A
:10024400A007F20D0730FC00720DF80DF90DFA0D40
:10025400FB0DA00D7408721C4129F8027508031CDB
:10026400750FF9027608031C760FFA027708031C4F
:10027400770FFB020001031C0130A0025229F8078A
:1002840075080318750FF90776080318760FFA072F
:1002940077080318770FFB07000103180130A00744
:1002A400F20DFC0B2629710DF80DF90DFA0DFB0D5D
:1002B400A00D7408721C7029F8027508031C750FD0
:1002C400F9027608031C760FFA027708031C770FED
:1002D400FB020001031C0130A0028129F807750804
:1002E4000318750FF90776080318760FFA077708CD
:1002F4000318770FFB07000103180130A007F10D65
:100304000730FC00710DF80DF90DFA0DFB0DA00D71
:100314007408711C9F29F8027508031C750FF902F3
:100324007608031C760FFA027708031C770FFB028A
:100334000001031C0130A002B029F8077508031856
:10034400750FF90776080318760FFA07770803186C
:10035400770FFB07000103180130A007F10DFC0B18
:100364008429700DF80DF90DFA0DFB0DA00D74081C
:10037400711CCE29F8027508031C750FF902760862
:10038400031C760FFA027708031C770FFB020001A7
:10039400031C0130A002DF29F80775080318750F44
:1003A400F90776080318760FFA0777080318770F0A
:1003B400FB07000103180130A007F00D0730FC0013
:1003C400700DF80DF90DFA0DFB0DA00D7408701CDD
:1003D400FD29F8027508031C750FF9027608031C41
:1003E400760FFA027708031C770FFB020001031C47
:1003F4000130A0020E2AF80775080318750FF907D3
:1004040076080318760FFA0777080318770FFB07A7
:10041400000103180130A007F00DFC0BE22970184D
:10042400212A7408F80775080318750FF907760868
:100434000318760FFA0777080318770FFB070800ED
:0E044400831203135D088A005C088200080022
:100452007120E830F4000330F500F601F7010320C3
:100462007008E8007108E9007208EA007308EB00FE
:100472006008F4006108F500F601F701AA2070088F
:10048200E8007108E9007208EA007308EB007008DE
:10049200F5007108F6007208F7007308F800F80C0E
:1004A200F70CF60CF50CF813F80CF70CF60CF50C2F
:1004B200F8137508F0007608F1007708F200780862
:1004C200F300F30CF20CF10CF00CF3137008E400DF
:1004D2007108E50071206208F4006308F500F60176
:1004E200F70103206408F9006508FA00FB01FC012A
:1004F2000330F8007908F4007A08F5007B08F6006A
:100502007C08F700780803198D2AF40DF50DF60D15
:10051200F70D7410FF3E842AAA207008E8007108C3
:10052200E9007208EA007308EB000A30F4000030B8
:10053200F5006408F0006508F1007A207008E40014
:100542007108E50000307102031DA92A0330700210
:100552000318AC2AF92A540884006B08003C031DD6
:10056200BC2A6A08003C031DBC2A6908003C031D22
:10057200BC2A6808003C0318F72A5A088004650858
:100582000319D32AE601E70100306702031DCB2AD3
:10059200650866020318D32AEC019720E60A0319BC
:1005A200E70AC52A6408EC00972059088005650807
:1005B2000319EB2AE601E70100306702031DE32A73
:1005C200650866020318EB2AEC019720E60A031974
:1005D200E70ADD2A6408EC0097200130E802031CD8
:1005E200E902031CEA02031CEB02AE2A5908800549
:0205F2000800FF
:1005F400831203137408003A031D092B7508003A8B
:10060400031D092BFF30F0007F30F100622B8312B1
:100614000313FD01F901F801710870040319003492
:1006240071087506FA00FA1BFD09FB01F51F1F2B63
:10063400F409F509F40A0319F50AF11F262BF00948
:10064400F109F00A0319F10A71087504FA00FA1B9A
:100654003B2B45207B184E2BFD1F0034F009F1097C
:10066400F00A0319F10AF809F909F80A0319F90A51
:100674000034F51F4A2BF11B462B7108F900700852
:10068400F800F101F0012E2BF101F001F00A003421
:10069400F109F009FB0A2B2BF80A0319F90A74086B
:1006A4007802031D2E2B75087902031D2E2BF901E8
:1006B400F801F00A0319F10AF11F2E2B0000FF3490
:0206C40008002C
:1006C600831203135B08031D6D2B0130EC00003011
:1006D600ED003A205508F0005608F1005708F200E0
:1006E6005808F3006D30F4004E30F500C630F600C1
:1006F6004130F70003203930F5003030F600F701BD
:10070600F8017008F50771080318710FF6077208EB
:100716000318720FF70773080318730FF8077708A3
:10072600F0007808F1000030F81BFF30F200F3000B
:10073600FF30F0057F30F1050030F205F305700853
:10074600D5007108D6007208D7007308D8000800D3
:0E075600831203130610861106118610080088
:10076400033083120313FB008A30FC005530FD0074
:10077400FD0BBA2BFC0BBA2BFB0BBA2B00000000B1
:1007840006148614061186118430E000E101E83075
:10079400E2000330E30029220630FB001330FC00A2
:1007A400AD30FD00FD0BD42BFC0BD42BFB0BD42B59
:1007B4000000000006108610061586154630E0007D
:1007C4000030E100B030E2000430E30029220730B9
:1007D400FB001730FC006A30FD00FD0BEF2BFC0B17
:1007E400EF2BFB0BEF2B0000061486140615861561
:1007F400B430E000E1017830E2000530E300292262
:100804000830FB001B30FC002730FD00FD0B082CDA
:10081400FC0B082CFB0B082C061086100611861105
:100824000330FB004930FC006630FD00FD0B182C42
:10083400FC0B182CFB0B182C0000D20105305202C3
:100844000318782C061406112930E0000030E1006A
:10085400A030E200E3012922D030FC00C930FD00C1
:10086400FD0B322CFC0B322C000000000610861508
:100874005530E0000030E100A030E200E30129221D
:10088400D030FC00C930FD00FD0B462CFC0B462C7F
:1008940000000000861186147430E0000030E1008E
:1008A400A030E200E3012922D030FC00C930FD0071
:1008B400FD0B5A2CFC0B5A2C000000008610061568
:1008C400B630E000E1012C30E2000130E3002922DF
:1008D4000230FB008630FC009930FD00FD0B702CCB
:1008E400FC0B702CFB0B702CD20A202CD20106308E
:1008F40052020318BE2C86158619822C0611832CED
:1009040006150619872C8610882C861486188C2CBC
:1009140006108D2C06144630E0000030E1009030C3
:10092400E2000130E30029228230FC00DD30FD00CA
:10093400FD0B9A2CFC0B9A2C0000000086118619E2
:10094400A52C0611A62C06150619AA2C8610AB2C6C
:1009540086148618AF2C0610B02C06140230FB0047
:100964008630FC009930FD00FD0BB62CFC0BB62C38
:0A097400FB0BB62CD20A792C080008
:10097E008030831203132306F00080307002031DB3
:10098E00CA2C210822020318AF2E240825040319AD
:10099E00AF2E2208F0002308F100F00DF10D7010BB
:1009AE0070082A3EDE0063230430F4000030F500A8
:1009BE00FA227808F0007908F1005E0884007008C9
:1009CE0080007108840A8000D30180302306F00075
:1009DE0080307002031DF52C53082202031C932D48
:1009EE005308F000F00D701070082A3EDE00292D1D
:1009FE000614B630E000E1012C30E2000130E300D5
:100A0E002922652D86149630E000E1012C30E2009B
:100A1E000130E3002922652D86157830E000003084
:100A2E00E1002C30E2000130E3002922652D06158D
:100A3E005A30E0000030E1002C30E2000130E300DB
:100A4E002922652D5E0884000008F100840A000842
:100A5E00F20000307206031D362D003071060319A8
:100A6E00FF2C5E0884000008F100840A0008F200E2
:100A7E0000307206031D452D013071060319092D34
:100A8E005E0884000008F100840A0008F2000030BD
:100A9E007206031D542D023071060319132D5E08C4
:100AAE0084000008F100840A0008F200003072068B
:100ABE00031D632D0330710603191E2D0630FB0036
:100ACE001330FC00AD30FD00FD0B6B2DFC0B6B2DC0
:100ADE00FB0B6B2D0000000086118619782D061178
:100AEE00792D061506197D2D86107E2D86148618F5
:100AFE00822D0610832D06140330FB008A30FC0075
:100B0E005530FD00FD0B892DFC0B892DFB0B892D1E
:100B1E0000000000D30AEC2C1030FB003930FC0032
:100B2E000D30FD00FD0B992DFC0B992DFB0B992D16
:100B3E0000000000A701A801A60180302306F000E6
:100B4E00803028067002031DAE2D27082202031CDA
:100B5E008F2E2408250403198F2E2908031D6B2EB2
:100B6E002608031D6B2E061EE12D0130A90006146A
:100B7E00B630E000E1012C30E2000130E300292222
:100B8E002708F0002808F100F00DF10D7010700824
:100B9E002A3E84000008F100840A0008F2000030AA
:100BAE007206031DDC2D003071060319E02DA40121
:100BBE00A501572E861E082E0130A90086149630E8
:100BCE00E000E1012C30E2000130E3002922270889
:100BDE00F0002808F100F00DF10D701070082A3E9B
:100BEE0084000008F100840A0008F200003072064A
:100BFE00031D032E013071060319072EA401A50152
:100C0E00572E861F302E0130A90086157830E00051
:100C1E000030E1002C30E2000130E30029222708E9
:100C2E00F0002808F100F00DF10D701070082A3E4A
:100C3E0084000008F100840A0008F20000307206F9
:100C4E00031D2B2E0230710603192F2EA401A501B0
:100C5E00572E061F572E0130A90006155A30E000F8
:100C6E000030E1002C30E2000130E3002922270899
:100C7E00F0002808F100F00DF10D701070082A3EFA
:100C8E0084000008F100840A0008F20000307206A9
:100C9E00031D532E033071060319572EA401A5010F
:100CAE00290803196A2E0330FB008A30FC005530E8
:100CBE00FD00FD0B602EFC0B602EFB0B602E00006A
:100CCE0000000130A6008E2E290803198E2E26084C
:100CDE0003198E2E061A8E2E861A8E2E861B8E2E99
:100CEE00061B8E2EA901A601A70A0319A80A061132
:100CFE000619832E8611842E86158619882E861047
:100D0E00892E861486188D2E06108E2E0614A42D6E
:100D1E001030FB003930FC000D30FD00FD0B952E20
:100D2E00FC0B952EFB0B952E00000000A20A03195A
:100D3E00A30A0B30FB002630FC005D30FD00FD0BDE
:100D4E00A62EFC0BA62EFB0BA62E00000000BF2C21
:020D5E0008008B
:100D600083120313A201A301A701A8010130A4006B
:0A0D70000030A500A901A60108004B
:100D7A0083120313DE01DF010614061AD02E023095
:100D8A00FC004B30FD00FD0BC82EFC0BC82EDE0A02
:100D9A000319DF0AC22E06105E08EC005F08ED0098
:040DAA003A200800E3
:100DAE00831203135E08D4005F08F1000130F000D7
:100DBE0071080319E62EF00D7010FF3EE02E70083C
:100DCE00DA00F0097008D90080305E0784007008E0
:0A0DDE0080058413700880050800EA
:100DE80022228A110A128000840ADC0A0319DD0A09
:080DF800F003031DF42E0800B6
:100E0000033083120313A100A201A3010130A40047
:100E1000A501A601A701A801A901F030831686004B
:100E20000230850083128601013085000530DE0026
:100E3000DF01D726BD26B2231A30FB005E30FC004E
:100E40006E30FD00FD0B222FFC0B222FFB0B222FFF
:100E50000000BF242408250403197F2F4630E0003A
:100E60000030E1002C30E2000130E30029220230A2
:100E7000FB008630FC009930FD00FD0B3D2FFC0B84
:100E80003D2FFB0B3D2F6430E0000030E1002C30A3
:100E9000E2000130E30029220230FB008630FC0032
:100EA0009930FD00FD0B522FFC0B522FFB0B522FE4
:100EB0008230E000E1012C30E2000130E300292221
:100EC0000230FB008630FC009930FD00FD0B662FE0
:100ED000FC0B662FFB0B662FA201A301A701A80143
:100EE0000130A4000030A500A901A601A10AAB238E
:100EF0001E302102031C7E2F1E30A1008A2F463097
:100F0000E0000030E100E830E2000330E300292295
:080F1000B026AB231A2F8B2F32
:02400E006A2125
:00000001FF
