:02000000F52EDB
:10000600831203132230FC00F801F901FA01FB0107
:10001600FC03031939280310FB0CFA0CF90CF80C35
:10002600F30CF20CF10CF00C031C0B28FC03031967
:100036002B287408F80775080318750FF907760852
:100046000318760FFA0777080318770FFB070F28B0
:100056007408F80775080318750FF907760803186A
:0E006600760FFA0777080318770FFB070800DC
:10007400831203136C08D5006D08D600D701D8018C
:060084000130DB00080062
:10008A00710DF80DF90D7408F8027508031C750F47
:10009A00F902F00DF10D0F30FC00710DF80DF90D9C
:1000AA007408701C5E28F8027508031C750FF902A3
:1000BA006328F80775080318750FF907F00DF10D95
:1000CA00FC0B522870186F287408F8077508031873
:0800DA00750FF9070000080092
:1000E200A03083120313F0000F30F100F201F3018C
:0200F200080004
:1000F40083120313F801F9011030FC00710DF80D9F
:10010400F90D7408F8027508031C750FF902031839
:1001140092287408F80775080318750FF907031077
:0A012400F00DF10DFC0B802808001F
:10012E0083120313EC03EC036C08003C0318A428A1
:10013E00EC030000000000009B28000000000000FF
:06014E00000000000800A3
:1001540083120313FB01FA01F901F801A001730DE5
:10016400F80D7408F8027508031C750FF902760877
:10017400031C760FFA027708031C770FFB020001B9
:10018400031C0130A002F30D0730FC00730DF80DC1
:10019400F90DFA0DFB0DA00D7408731CE328F80289
:1001A4007508031C750FF9027608031C760FFA0212
:1001B4007708031C770FFB020001031C0130A00227
:1001C400F428F80775080318750FF907760803185B
:1001D400760FFA0777080318770FFB070001031857
:1001E4000130A007F30DFC0BC828720DF80DF90DB2
:1001F400FA0DFB0DA00D7408731C1229F802750882
:10020400031C750FF9027608031C760FFA027708AF
:10021400031C770FFB020001031C0130A0022329F9
:10022400F80775080318750FF90776080318760F91
:10023400FA0777080318770FFB070001031801304A
:10024400A007F20D0730FC00720DF80DF90DFA0D40
:10025400FB0DA00D7408721C4129F8027508031CDB
:10026400750FF9027608031C760FFA027708031C4F
:10027400770FFB020001031C0130A0025229F8078A
:1002840075080318750FF90776080318760FFA072F
:1002940077080318770FFB07000103180130A00744
:1002A400F20DFC0B2629710DF80DF90DFA0DFB0D5D
:1002B400A00D7408721C7029F8027508031C750FD0
:1002C400F9027608031C760FFA027708031C770FED
:1002D400FB020001031C0130A0028129F807750804
:1002E4000318750FF90776080318760FFA077708CD
:1002F4000318770FFB07000103180130A007F10D65
:100304000730FC00710DF80DF90DFA0DFB0DA00D71
:100314007408711C9F29F8027508031C750FF902F3
:100324007608031C760FFA027708031C770FFB028A
:100334000001031C0130A002B029F8077508031856
:10034400750FF90776080318760FFA07770803186C
:10035400770FFB07000103180130A007F10DFC0B18
:100364008429700DF80DF90DFA0DFB0DA00D74081C
:10037400711CCE29F8027508031C750FF902760862
:10038400031C760FFA027708031C770FFB020001A7
:10039400031C0130A002DF29F80775080318750F44
:1003A400F90776080318760FFA0777080318770F0A
:1003B400FB07000103180130A007F00D0730FC0013
:1003C400700DF80DF90DFA0DFB0DA00D7408701CDD
:1003D400FD29F8027508031C750FF9027608031C41
:1003E400760FFA027708031C770FFB020001031C47
:1003F4000130A0020E2AF80775080318750FF907D3
:1004040076080318760FFA0777080318770FFB07A7
:10041400000103180130A007F00DFC0BE22970184D
:10042400212A7408F80775080318750FF907760868
:100434000318760FFA0777080318770FFB070800ED
:0E044400831203135D088A005C088200080022
:100452007120E830F4000330F500F601F7010320C3
:100462007008E8007108E9007208EA007308EB00FE
:100472006008F4006108F500F601F701AA2070088F
:10048200E8007108E9007208EA007308EB007008DE
:10049200F5007108F6007208F7007308F800F80C0E
:1004A200F70CF60CF50CF813F80CF70CF60CF50C2F
:1004B200F8137508F0007608F1007708F200780862
:1004C200F300F30CF20CF10CF00CF3137008E400DF
:1004D2007108E50071206208F4006308F500F60176
:1004E200F70103206408F9006508FA00FB01FC012A
:1004F2000330F8007908F4007A08F5007B08F6006A
:100502007C08F700780803198D2AF40DF50DF60D15
:10051200F70D7410FF3E842AAA207008E8007108C3
:10052200E9007208EA007308EB000A30F4000030B8
:10053200F5006408F0006508F1007A207008E40014
:100542007108E50000307102031DA92A0330700210
:100552000318AC2AF92A540884006B08003C031DD6
:10056200BC2A6A08003C031DBC2A6908003C031D22
:10057200BC2A6808003C0318F72A5A088004650858
:100582000319D32AE601E70100306702031DCB2AD3
:10059200650866020318D32AEC019720E60A0319BC
:1005A200E70AC52A6408EC00972059088005650807
:1005B2000319EB2AE601E70100306702031DE32A73
:1005C200650866020318EB2AEC019720E60A031974
:1005D200E70ADD2A6408EC0097200130E802031CD8
:1005E200E902031CEA02031CEB02AE2A5908800549
:0205F2000800FF
:1005F400831203137408003A031D092B7508003A8B
:10060400031D092BFF30F0007F30F100622B8312B1
:100614000313FD01F901F801710870040319003492
:1006240071087506FA00FA1BFD09FB01F51F1F2B63
:10063400F409F509F40A0319F50AF11F262BF00948
:10064400F109F00A0319F10A71087504FA00FA1B9A
:100654003B2B45207B184E2BFD1F0034F009F1097C
:10066400F00A0319F10AF809F909F80A0319F90A51
:100674000034F51F4A2BF11B462B7108F900700852
:10068400F800F101F0012E2BF101F001F00A003421
:10069400F109F009FB0A2B2BF80A0319F90A74086B
:1006A4007802031D2E2B75087902031D2E2BF901E8
:1006B400F801F00A0319F10AF11F2E2B0000FF3490
:0206C40008002C
:1006C600831203135B08031D6D2B0130EC00003011
:1006D600ED003A205508F0005608F1005708F200E0
:1006E6005808F3006D30F4004E30F500C630F600C1
:1006F6004130F70003203930F5003030F600F701BD
:10070600F8017008F50771080318710FF6077208EB
:100716000318720FF70773080318730FF8077708A3
:10072600F0007808F1000030F81BFF30F200F3000B
:10073600FF30F0057F30F1050030F205F305700853
:10074600D5007108D6007208D7007308D8000800D3
:0E075600831203130610861106118610080088
:10076400033083120313FB008A30FC005530FD0074
:10077400FD0BBA2BFC0BBA2BFB0BBA2B00000000B1
:1007840006148614061186118430E000E10120303D
:10079400E2000330E30029220530FB000F30FC00A7
:1007A400F130FD00FD0BD42BFC0BD42BFB0BD42B15
:1007B40006108610061586154630E0000030E1006C
:1007C400E830E2000330E30029220630FB00133056
:1007D400FC00AD30FD00FD0BED2BFC0BED2BFB0BFA
:1007E400ED2B000000000614861406158615B4309F
:1007F400E000E101B030E2000430E30029220730D8
:10080400FB001730FC006A30FD00FD0B072CFC0BCD
:10081400072CFB0B072C000006108610061186110E
:100824000330FB004930FC006630FD00FD0B182C42
:10083400FC0B182CFB0B182C0000D20105305202C3
:1008440003186D2C061406112930E0000030E10075
:10085400B430E200E3012922EA30FC00C330FD0099
:10086400FD0B322CFC0B322C061086155530E000A3
:100874000030E100B430E200E3012922EA30FC0058
:10088400C330FD00FD0B442CFC0B442C8611861454
:100894007430E0000030E100B430E200E3012922CA
:1008A400EA30FC00C330FD00FD0B562CFC0B562C2B
:1008B40086100615B630E000E101B430E200E30131
:1008C4002922EA30FC00C330FD00FD0B672CFC0B31
:1008D400672CD20A202CD201063052020318B32C02
:1008E40086158619772C0611782C061506197C2C8A
:1008F40086107D2C86148618812C0610822C0614F2
:100904004630E0000030E1009030E2000130E300C6
:1009140029228230FC00DD30FD00FD0B8F2CFC0B06
:100924008F2C00000000861186199A2C06119B2C2E
:10093400061506199F2C8610A02C86148618A42C44
:100944000610A52C06140230FB008630FC009930FA
:10095400FD00FD0BAB2CFC0BAB2CFB0BAB2CD20A20
:040964006E2C0800ED
:100968008030831203132306F00080307002031DC9
:10097800BF2C210822020318A42E240825040319D9
:10098800A42E2208F0002308F100F00DF10D7010DC
:1009980070082A3EDE0063230430F4000030F500BE
:1009A800FA227808F0007908F1005E0884007008DF
:1009B80080007108840A8000D30180302306F0008B
:1009C80080307002031DEA2C53082202031C882D74
:1009D8005308F000F00D701070082A3EDE001E2D3E
:1009E8000614B630E000E1012C30E2000130E300EB
:1009F80029225A2D86149630E000E1012C30E200BD
:100A08000130E30029225A2D86157830E0000030A5
:100A1800E1002C30E2000130E30029225A2D0615AE
:100A28005A30E0000030E1002C30E2000130E300F1
:100A380029225A2D5E0884000008F100840A000863
:100A4800F20000307206031D2B2D003071060319C9
:100A5800F42C5E0884000008F100840A0008F20003
:100A680000307206031D3A2D013071060319FE2C61
:100A78005E0884000008F100840A0008F2000030D3
:100A88007206031D492D023071060319082D5E08F0
:100A980084000008F100840A0008F20000307206A1
:100AA800031D582D033071060319132D0630FB0062
:100AB8001330FC00AD30FD00FD0B602DFC0B602DEC
:100AC800FB0B602D00000000861186196D2D0611A4
:100AD8006E2D06150619722D8610732D861486182C
:100AE800772D0610782D06140330FB008A30FC00A1
:100AF8005530FD00FD0B7E2DFC0B7E2DFB0B7E2D56
:100B080000000000D30AE12C1030FB003930FC0053
:100B18000D30FD00FD0B8E2DFC0B8E2DFB0B8E2D4D
:100B280000000000A701A801A60180302306F000FC
:100B3800803028067002031DA32D27082202031CFB
:100B4800842E240825040319842E2908031D602EE9
:100B58002608031D602E061ED62D0130A900061496
:100B6800B630E000E1012C30E2000130E300292238
:100B78002708F0002808F100F00DF10D701070083A
:100B88002A3E84000008F100840A0008F2000030C0
:100B98007206031DD12D003071060319D52DA4014D
:100BA800A5014C2E861EFD2D0130A9008614963015
:100BB800E000E1012C30E2000130E300292227089F
:100BC800F0002808F100F00DF10D701070082A3EB1
:100BD80084000008F100840A0008F2000030720660
:100BE800031DF82D013071060319FC2DA401A50180
:100BF8004C2E861F252E0130A90086157830E0007E
:100C08000030E1002C30E2000130E30029222708FF
:100C1800F0002808F100F00DF10D701070082A3E60
:100C280084000008F100840A0008F200003072060F
:100C3800031D202E023071060319242EA401A501DC
:100C48004C2E061F4C2E0130A90006155A30E00024
:100C58000030E1002C30E2000130E30029222708AF
:100C6800F0002808F100F00DF10D701070082A3E10
:100C780084000008F100840A0008F20000307206BF
:100C8800031D482E0330710603194C2EA401A5013B
:100C9800290803195F2E0330FB008A30FC00553009
:100CA800FD00FD0B552EFC0B552EFB0B552E0000A1
:100CB80000000130A600832E29080319832E260878
:100CC8000319832E061A832E861A832E861B832EDB
:100CD800061B832EA901A601A70A0319A80A061153
:100CE8000619782E8611792E861586197D2E86107E
:100CF8007E2E86148618822E0610832E0614992DB1
:100D08001030FB003930FC000D30FD00FD0B8A2E41
:100D1800FC0B8A2EFB0B8A2E00000000A20A031986
:100D2800A30A0B30FB002630FC005D30FD00FD0BF4
:100D38009B2EFC0B9B2EFB0B9B2E00000000B42C63
:020D48000800A1
:100D4A0083120313A201A301A701A8010130A40081
:0A0D5A000030A500A901A601080061
:100D640083120313DE01DF010614061AC52E0230B6
:100D7400FC004B30FD00FD0BBD2EFC0BBD2EDE0A2E
:100D84000319DF0AB72E06105E08EC005F08ED00B9
:040D94003A200800F9
:100D9800831203135E08D4005F08F1000130F000ED
:100DA80071080319DB2EF00D7010FF3ED52E700868
:100DB800DA00F0097008D90080305E0784007008F6
:0A0DC8008005841370088005080000
:100DD20022228A110A128000840ADC0A0319DD0A1F
:080DE200F003031DE92E0800D7
:100DEA00033083120313A100A201A3010130A4005E
:100DFA00A501A601A701A801A901F0308316860062
:100E0A000230850083128601013085000530DE003C
:100E1A00DF01CC26B226B2231A30FB005E30FC007A
:100E2A006E30FD00FD0B172FFC0B172FFB0B172F36
:100E3A000000B424240825040319742F4630E00066
:100E4A000030E1002C30E2000130E30029220230B8
:100E5A00FB008630FC009930FD00FD0B322FFC0BA5
:100E6A00322FFB0B322F6430E0000030E1002C30CF
:100E7A00E2000130E30029220230FB008630FC0048
:100E8A009930FD00FD0B472FFC0B472FFB0B472F1B
:100E9A008230E000E1012C30E2000130E300292237
:100EAA000230FB008630FC009930FD00FD0B5B2F01
:100EBA00FC0B5B2FFB0B5B2FA201A301A701A8016F
:100ECA000130A4000030A500A901A601A10AAB23A4
:100EDA001E302102031C732F1E30A1007F2F4630C3
:100EEA00E0000030E100E830E2000330E3002922AC
:080EFA00A526AB230F2F802F6A
:02400E006A2125
:00000001FF
