:020000001628C0
:0E0006008312031323088A00220882000800D8
:1000140003208A110A128000840AA20A0319A30A7F
:08002400F003031D0A28080087
:10002C0083120313A001A101F03083168600023065
:10003C00850083128601850100302106031D2828C6
:10004C0000302006031DD7280130A0000030A1008D
:10005C00A401A50180302506F00080307002031D3C
:10006C003928033024020318632806148614061555
:10007C0086150630FB001330FC00AD30FD00FD0B87
:10008C004528FC0B4528FB0B4528000000000610FA
:10009C008610061186110630FB001330FC00AD30C3
:1000AC00FD00FD0B5728FC0B5728FB0B57280000B5
:1000BC000000A40A0319A50A3028A401A501803068
:1000CC002506F00080307002031D6E2805302402D6
:1000DC000318B42806140630FB001330FC00AD30B6
:1000EC00FD00FD0B7728FC0B7728FB0B7728000015
:1000FC000000061086150630FB001330FC00AD30F6
:10010C00FD00FD0B8728FC0B8728FB0B87280000C4
:10011C000000861186140630FB001330FC00AD3055
:10012C00FD00FD0B9728FC0B9728FB0B9728000074
:10013C000000861006150630FB001330FC00AD30B5
:10014C00FD00FD0BA728FC0BA728FB0BA728000024
:10015C0000000611A40A0319A50A652806148614C2
:10016C00061586150B30FB002630FC005D30FD00BB
:10017C00FD0BBE28FC0BBE28FB0BBE2800000000AC
:10018C0006108610061186111530FB004B30FC0052
:10019C00BE30FD00FD0BD028FC0BD028FB0BD0286B
:0601AC0000002228D82803
:02400E006A2125
:00000001FF
