:02000000C12E0F
:10000600831203132230FC00F801F901FA01FB0107
:10001600FC03031939280310FB0CFA0CF90CF80C35
:10002600F30CF20CF10CF00C031C0B28FC03031967
:100036002B287408F80775080318750FF907760852
:100046000318760FFA0777080318770FFB070F28B0
:100056007408F80775080318750FF907760803186A
:0E006600760FFA0777080318770FFB070800DC
:10007400831203136908D2006A08D300D401D5019E
:060084000130D800080065
:10008A00710DF80DF90D7408F8027508031C750F47
:10009A00F902F00DF10D0F30FC00710DF80DF90D9C
:1000AA007408701C5E28F8027508031C750FF902A3
:1000BA006328F80775080318750FF907F00DF10D95
:1000CA00FC0B522870186F287408F8077508031873
:0800DA00750FF9070000080092
:1000E200A03083120313F0000F30F100F201F3018C
:0200F200080004
:1000F40083120313F801F9011030FC00710DF80D9F
:10010400F90D7408F8027508031C750FF902031839
:1001140092287408F80775080318750FF907031077
:0A012400F00DF10DFC0B802808001F
:10012E0083120313E903E9036908003C0318A428AA
:10013E00E9030000000000009B2800000000000002
:06014E00000000000800A3
:1001540083120313FB01FA01F901F801A001730DE5
:10016400F80D7408F8027508031C750FF902760877
:10017400031C760FFA027708031C770FFB020001B9
:10018400031C0130A002F30D0730FC00730DF80DC1
:10019400F90DFA0DFB0DA00D7408731CE328F80289
:1001A4007508031C750FF9027608031C760FFA0212
:1001B4007708031C770FFB020001031C0130A00227
:1001C400F428F80775080318750FF907760803185B
:1001D400760FFA0777080318770FFB070001031857
:1001E4000130A007F30DFC0BC828720DF80DF90DB2
:1001F400FA0DFB0DA00D7408731C1229F802750882
:10020400031C750FF9027608031C760FFA027708AF
:10021400031C770FFB020001031C0130A0022329F9
:10022400F80775080318750FF90776080318760F91
:10023400FA0777080318770FFB070001031801304A
:10024400A007F20D0730FC00720DF80DF90DFA0D40
:10025400FB0DA00D7408721C4129F8027508031CDB
:10026400750FF9027608031C760FFA027708031C4F
:10027400770FFB020001031C0130A0025229F8078A
:1002840075080318750FF90776080318760FFA072F
:1002940077080318770FFB07000103180130A00744
:1002A400F20DFC0B2629710DF80DF90DFA0DFB0D5D
:1002B400A00D7408721C7029F8027508031C750FD0
:1002C400F9027608031C760FFA027708031C770FED
:1002D400FB020001031C0130A0028129F807750804
:1002E4000318750FF90776080318760FFA077708CD
:1002F4000318770FFB07000103180130A007F10D65
:100304000730FC00710DF80DF90DFA0DFB0DA00D71
:100314007408711C9F29F8027508031C750FF902F3
:100324007608031C760FFA027708031C770FFB028A
:100334000001031C0130A002B029F8077508031856
:10034400750FF90776080318760FFA07770803186C
:10035400770FFB07000103180130A007F10DFC0B18
:100364008429700DF80DF90DFA0DFB0DA00D74081C
:10037400711CCE29F8027508031C750FF902760862
:10038400031C760FFA027708031C770FFB020001A7
:10039400031C0130A002DF29F80775080318750F44
:1003A400F90776080318760FFA0777080318770F0A
:1003B400FB07000103180130A007F00D0730FC0013
:1003C400700DF80DF90DFA0DFB0DA00D7408701CDD
:1003D400FD29F8027508031C750FF9027608031C41
:1003E400760FFA027708031C770FFB020001031C47
:1003F4000130A0020E2AF80775080318750FF907D3
:1004040076080318760FFA0777080318770FFB07A7
:10041400000103180130A007F00DFC0BE22970184D
:10042400212A7408F80775080318750FF907760868
:100434000318760FFA0777080318770FFB070800ED
:0E044400831203135A088A0059088200080028
:100452007120E830F4000330F500F601F7010320C3
:100462007008E5007108E6007208E7007308E8000A
:100472005D08F4005E08F500F601F701AA20700895
:10048200E5007108E6007208E7007308E8007008EA
:10049200F5007108F6007208F7007308F800F80C0E
:1004A200F70CF60CF50CF813F80CF70CF60CF50C2F
:1004B200F8137508F0007608F1007708F200780862
:1004C200F300F30CF20CF10CF00CF3137008E100E2
:1004D2007108E20071205F08F4006008F500F6017F
:1004E200F70103206108F9006208FA00FB01FC0130
:1004F2000330F8007908F4007A08F5007B08F6006A
:100502007C08F700780803198D2AF40DF50DF60D15
:10051200F70D7410FF3E842AAA207008E5007108C6
:10052200E6007208E7007308E8000A30F4000030C1
:10053200F5006108F0006208F1007A207008E1001D
:100542007108E20000307102031DA92A0330700213
:100552000318AC2AF92A510884006808003C031DDC
:10056200BC2A6708003C031DBC2A6608003C031D28
:10057200BC2A6508003C0318F72A57088004620861
:100582000319D32AE301E40100306402031DCB2ADC
:10059200620863020318D32AE9019720E30A0319C8
:1005A200E40AC52A6108E900972056088005620816
:1005B2000319EB2AE301E40100306402031DE32A7C
:1005C200620863020318EB2AE9019720E30A031980
:1005D200E40ADD2A6108E90097200130E502031CE4
:1005E200E602031CE702031CE802AE2A5608800555
:0205F2000800FF
:1005F400831203137408003A031D092B7508003A8B
:10060400031D092BFF30F0007F30F100622B8312B1
:100614000313FD01F901F801710870040319003492
:1006240071087506FA00FA1BFD09FB01F51F1F2B63
:10063400F409F509F40A0319F50AF11F262BF00948
:10064400F109F00A0319F10A71087504FA00FA1B9A
:100654003B2B45207B184E2BFD1F0034F009F1097C
:10066400F00A0319F10AF809F909F80A0319F90A51
:100674000034F51F4A2BF11B462B7108F900700852
:10068400F800F101F0012E2BF101F001F00A003421
:10069400F109F009FB0A2B2BF80A0319F90A74086B
:1006A4007802031D2E2B75087902031D2E2BF901E8
:1006B400F801F00A0319F10AF11F2E2B0000FF3490
:0206C40008002C
:1006C600831203135808031D6D2B0130E900003017
:1006D600EA003A205208F0005308F1005408F200EC
:1006E6005508F3006D30F4004E30F500C630F600C4
:1006F6004130F70003203930F5003030F600F701BD
:10070600F8017008F50771080318710FF6077208EB
:100716000318720FF70773080318730FF8077708A3
:10072600F0007808F1000030F81BFF30F200F3000B
:10073600FF30F0057F30F1050030F205F305700853
:10074600D2007108D3007208D4007308D5000800DF
:0E075600831203130610861106118610080088
:10076400033083120313FB008A30FC005530FD0074
:10077400FD0BBA2BFC0BBA2BFB0BBA2B00000000B1
:1007840006148614061186118430DD00DE01203043
:10079400DF000330E00029220530FB000F30FC00AD
:1007A400F130FD00FD0BD42BFC0BD42BFB0BD42B15
:1007B40006108610061586154630DD000030DE0072
:1007C400E830DF000330E00029220630FB0013305C
:1007D400FC00AD30FD00FD0BED2BFC0BED2BFB0BFA
:1007E400ED2B000000000614861406158615B4309F
:1007F400DD00DE01B030DF000430E00029220730E4
:10080400FB001730FC006A30FD00FD0B072CFC0BCD
:10081400072CFB0B072C000006108610061186110E
:100824000330FB004930FC006630FD00FD0B182C42
:10083400FC0B182CFB0B182C0000CF0105304F02C9
:1008440003186D2C061406112930DD000030DE007B
:10085400B430DF00E0012922EA30FC00C330FD009F
:10086400FD0B322CFC0B322C061086155530DD00A6
:100874000030DE00B430DF00E0012922EA30FC0061
:10088400C330FD00FD0B442CFC0B442C8611861454
:100894007430DD000030DE00B430DF00E0012922D6
:1008A400EA30FC00C330FD00FD0B562CFC0B562C2B
:1008B40086100615B630DD00DE01B430DF00E0013D
:1008C4002922EA30FC00C330FD00FD0B672CFC0B31
:1008D400672CCF0A202CCF0106304F020318B32C0B
:1008E40086158619772C0611782C061506197C2C8A
:1008F40086107D2C86148618812C0610822C0614F2
:100904004630DD000030DE009030DF000130E000D2
:1009140029228230FC00DD30FD00FD0B8F2CFC0B06
:100924008F2C00000000861186199A2C06119B2C2E
:10093400061506199F2C8610A02C86148618A42C44
:100944000610A52C06140230FB008630FC009930FA
:10095400FD00FD0BAB2CFC0BAB2CFB0BAB2CCF0A23
:040964006E2C0800ED
:1009680083120313210822020318742E2308031983
:10097800742E2208F000F00D70107008273EDB007E
:1009880063230430F4000030F500FA227808F00000
:100998007908F1005B088400700880007108840AF7
:1009A8008000D00150082202031C762D5008F00068
:1009B800F00D70107008273EDB000C2D0614B630C1
:1009C800DD00DE012C30DF000130E0002922482D57
:1009D80086149630DD00DE012C30DF000130E000A7
:1009E8002922482D86157830DD000030DE002C30B5
:1009F800DF000130E0002922482D06155A30DD00BD
:100A08000030DE002C30DF000130E0002922482DC4
:100A18005B0884000008F100840A0008F200003036
:100A28007206031D192D003071060319E22C5B08AC
:100A380084000008F100840A0008F2000030720601
:100A4800031D282D013071060319EC2C5B08840066
:100A58000008F100840A0008F20000307206031D45
:100A6800372D023071060319F62C5B088400000844
:100A7800F100840A0008F20000307206031D462DBA
:100A8800033071060319012D0630FB001330FC00FA
:100A9800AD30FD00FD0B4E2DFC0B4E2DFB0B4E2DEE
:100AA80000000000861186195B2D06115C2D0615C5
:100AB8000619602D8610612D86148618652D06107E
:100AC800662D06140330FB008A30FC005530FD000B
:100AD800FD0B6C2DFC0B6C2DFB0B6C2D000000002E
:100AE800D00AD62C1030FB003930FC000D30FD0048
:100AF800FD0B7C2DFC0B7C2DFB0B7C2D00000000DE
:100B0800A501A40125082202031C562E2308031957
:100B1800562E2608031D342E2408031D342E061EC7
:100B2800B62D0130A6000614B630DD00DE012C30EB
:100B3800DF000130E00029222508F000F00D7010D8
:100B48007008273E84000008F100840A0008F200BB
:100B580000307206031DB22D003071060319B52D41
:100B6800A301202E861ED92D0130A60086149630AA
:100B7800DD00DE012C30DF000130E00029222508ED
:100B8800F000F00D70107008273E84000008F10096
:100B9800840A0008F20000307206031DD52D0130CA
:100BA80071060319D82DA301202E861FFD2D0130B3
:100BB800A60086157830DD000030DE002C30DF001E
:100BC8000130E00029222508F000F00D70107008AF
:100BD800273E84000008F100840A0008F200003073
:100BE8007206031DF92D023071060319FC2DA301AD
:100BF800202E061F202E0130A60006155A30DD00D3
:100C08000030DE002C30DF000130E000292225080A
:100C1800F000F00D70107008273E84000008F10005
:100C2800840A0008F20000307206031D1D2E0330EE
:100C380071060319202EA30126080319332E033049
:100C4800FB008A30FC005530FD00FD0B292EFC0B03
:100C5800292EFB0B292E000000000130A400552E80
:100C680026080319552E24080319552E061A552E41
:100C7800861A552E861B552E061B552EA601A40135
:100C8800A50A061106194A2E86114B2E86158619B5
:100C98004F2E8610502E86148618542E0610552E68
:100CA8000614862D1030FB003930FC000D30FD0095
:100CB800FD0B5C2EFC0B5C2EFB0B5C2E0000000079
:100CC800A20A0B30FB002630FC005D30FD00FD0B56
:100CD8006B2EFC0B6B2EFB0B6B2E00000000B42C54
:020CE800080002
:100CEA0083120313A201A5010130A300A601A401E6
:020CFA000800F0
:100CFC0083120313DB01DC010614061A912E023059
:100D0C00FC004B30FD00FD0B892EFC0B892EDB0A01
:100D1C000319DC0A832E06105B08E9005C08EA0064
:040D2C003A20080061
:100D3000831203135B08D1005C08F1000130F0005E
:100D400071080319A72EF00D7010FF3EA12E700838
:100D5000D700F0097008D60080305B078400700867
:0A0D60008005841370088005080068
:100D6A0022228A110A128000840AD90A0319DA0A8D
:080D7A00F003031DB52E080073
:100D8200033083120313A100A2010130A300A401C6
:100D9200A501A601F0308316860002308500831279
:100DA2008601013085000530DB00DC0198267E26B5
:100DB200B2231A30FB005E30FC006E30FD00FD0BEA
:100DC200E02EFC0BE02EFB0BE02E0000B4242308E7
:100DD2000319382F4630DD000030DE002C30DF00F2
:100DE2000130E00029220230FB008630FC009930FD
:100DF200FD00FD0BFA2EFC0BFA2EFB0BFA2E6430D3
:100E0200DD000030DE002C30DF000130E00029225E
:100E12000230FB008630FC009930FD00FD0B0F2FE5
:100E2200FC0B0F2FFB0B0F2F8230DD00DE012C306D
:100E3200DF000130E00029220230FB008630FC0096
:100E42009930FD00FD0B232FFC0B232FFB0B232FCF
:100E5200A201A5010130A300A601A401A10AAB23AE
:100E62001E302102031C372F1E30A100432F4630B3
:100E7200DD000030DE00E830DF000330E000292230
:080E82007526AB23D82E442F86
:02400E006A2125
:00000001FF
