:02000000BC2E14
:10000600831203132230FC00F801F901FA01FB0107
:10001600FC03031939280310FB0CFA0CF90CF80C35
:10002600F30CF20CF10CF00C031C0B28FC03031967
:100036002B287408F80775080318750FF907760852
:100046000318760FFA0777080318770FFB070F28B0
:100056007408F80775080318750FF907760803186A
:0E006600760FFA0777080318770FFB070800DC
:10007400831203136908D2006A08D300D401D5019E
:060084000130D800080065
:10008A00710DF80DF90D7408F8027508031C750F47
:10009A00F902F00DF10D0F30FC00710DF80DF90D9C
:1000AA007408701C5E28F8027508031C750FF902A3
:1000BA006328F80775080318750FF907F00DF10D95
:1000CA00FC0B522870186F287408F8077508031873
:0800DA00750FF9070000080092
:1000E200403083120313F0001F30F100F201F301DC
:0200F200080004
:1000F40083120313F801F9011030FC00710DF80D9F
:10010400F90D7408F8027508031C750FF902031839
:1001140092287408F80775080318750FF907031077
:0A012400F00DF10DFC0B802808001F
:10012E0083120313E903E9036908003C0318A428AA
:10013E00E9030000000000009B2800000000000002
:06014E00000000000800A3
:1001540083120313FB01FA01F901F801A001730DE5
:10016400F80D7408F8027508031C750FF902760877
:10017400031C760FFA027708031C770FFB020001B9
:10018400031C0130A002F30D0730FC00730DF80DC1
:10019400F90DFA0DFB0DA00D7408731CE328F80289
:1001A4007508031C750FF9027608031C760FFA0212
:1001B4007708031C770FFB020001031C0130A00227
:1001C400F428F80775080318750FF907760803185B
:1001D400760FFA0777080318770FFB070001031857
:1001E4000130A007F30DFC0BC828720DF80DF90DB2
:1001F400FA0DFB0DA00D7408731C1229F802750882
:10020400031C750FF9027608031C760FFA027708AF
:10021400031C770FFB020001031C0130A0022329F9
:10022400F80775080318750FF90776080318760F91
:10023400FA0777080318770FFB070001031801304A
:10024400A007F20D0730FC00720DF80DF90DFA0D40
:10025400FB0DA00D7408721C4129F8027508031CDB
:10026400750FF9027608031C760FFA027708031C4F
:10027400770FFB020001031C0130A0025229F8078A
:1002840075080318750FF90776080318760FFA072F
:1002940077080318770FFB07000103180130A00744
:1002A400F20DFC0B2629710DF80DF90DFA0DFB0D5D
:1002B400A00D7408721C7029F8027508031C750FD0
:1002C400F9027608031C760FFA027708031C770FED
:1002D400FB020001031C0130A0028129F807750804
:1002E4000318750FF90776080318760FFA077708CD
:1002F4000318770FFB07000103180130A007F10D65
:100304000730FC00710DF80DF90DFA0DFB0DA00D71
:100314007408711C9F29F8027508031C750FF902F3
:100324007608031C760FFA027708031C770FFB028A
:100334000001031C0130A002B029F8077508031856
:10034400750FF90776080318760FFA07770803186C
:10035400770FFB07000103180130A007F10DFC0B18
:100364008429700DF80DF90DFA0DFB0DA00D74081C
:10037400711CCE29F8027508031C750FF902760862
:10038400031C760FFA027708031C770FFB020001A7
:10039400031C0130A002DF29F80775080318750F44
:1003A400F90776080318760FFA0777080318770F0A
:1003B400FB07000103180130A007F00D0730FC0013
:1003C400700DF80DF90DFA0DFB0DA00D7408701CDD
:1003D400FD29F8027508031C750FF9027608031C41
:1003E400760FFA027708031C770FFB020001031C47
:1003F4000130A0020E2AF80775080318750FF907D3
:1004040076080318760FFA0777080318770FFB07A7
:10041400000103180130A007F00DFC0BE22970184D
:10042400212A7408F80775080318750FF907760868
:100434000318760FFA0777080318770FFB070800ED
:0E044400831203135A088A0059088200080028
:100452007120E830F4000330F500F601F7010320C3
:100462007008E5007108E6007208E7007308E8000A
:100472005D08F4005E08F500F601F701AA20700895
:10048200E5007108E6007208E7007308E8007008EA
:10049200F5007108F6007208F7007308F800F80C0E
:1004A200F70CF60CF50CF813F80CF70CF60CF50C2F
:1004B200F8137508F0007608F1007708F200780862
:1004C200F300F30CF20CF10CF00CF3137008E100E2
:1004D2007108E20071205F08F4006008F500F6017F
:1004E200F70103206108F9006208FA00FB01FC0130
:1004F2000330F8007908F4007A08F5007B08F6006A
:100502007C08F700780803198D2AF40DF50DF60D15
:10051200F70D7410FF3E842AAA207008E5007108C6
:10052200E6007208E7007308E8000A30F4000030C1
:10053200F5006108F0006208F1007A207008E1001D
:100542007108E20000307102031DA92A0330700213
:100552000318AC2AF92A510884006808003C031DDC
:10056200BC2A6708003C031DBC2A6608003C031D28
:10057200BC2A6508003C0318F72A57088004620861
:100582000319D32AE301E40100306402031DCB2ADC
:10059200620863020318D32AE9019720E30A0319C8
:1005A200E40AC52A6108E900972056088005620816
:1005B2000319EB2AE301E40100306402031DE32A7C
:1005C200620863020318EB2AE9019720E30A031980
:1005D200E40ADD2A6108E90097200130E502031CE4
:1005E200E602031CE702031CE802AE2A5608800555
:0205F2000800FF
:1005F400831203137408003A031D092B7508003A8B
:10060400031D092BFF30F0007F30F100622B8312B1
:100614000313FD01F901F801710870040319003492
:1006240071087506FA00FA1BFD09FB01F51F1F2B63
:10063400F409F509F40A0319F50AF11F262BF00948
:10064400F109F00A0319F10A71087504FA00FA1B9A
:100654003B2B45207B184E2BFD1F0034F009F1097C
:10066400F00A0319F10AF809F909F80A0319F90A51
:100674000034F51F4A2BF11B462B7108F900700852
:10068400F800F101F0012E2BF101F001F00A003421
:10069400F109F009FB0A2B2BF80A0319F90A74086B
:1006A4007802031D2E2B75087902031D2E2BF901E8
:1006B400F801F00A0319F10AF11F2E2B0000FF3490
:0206C40008002C
:1006C600831203135808031D6D2B0130E900003017
:1006D600EA003A205208F0005308F1005408F200EC
:1006E6005508F3006D30F4004E30F500C630F600C4
:1006F6004130F70003203930F5003030F600F701BD
:10070600F8017008F50771080318710FF6077208EB
:100716000318720FF70773080318730FF8077708A3
:10072600F0007808F1000030F81BFF30F200F3000B
:10073600FF30F0057F30F1050030F205F305700853
:10074600D2007108D3007208D4007308D5000800DF
:0E075600831203130610861106118610080088
:10076400D03083120313FC00C930FD00FD0BB82BFD
:10077400FC0BB82B00000000061486140611861129
:100784004A30DD000130DE008C30DF00E001292238
:100794000230FB006C30FC009F30FD00FD0BD02BC1
:1007A400FC0BD02BFB0BD02B000000000610861096
:1007B40006158615AF30DD00DE01B430DF00E00140
:1007C40029220230FB00D430FC008530FD00FD0BF3
:1007D400E92BFC0BE92BFB0BE92B061486140615FD
:1007E4008615C230DD000130DE00C830DF00E001D4
:1007F40029220330FB000830FC007730FD00FD0B9C
:10080400012CFC0B012CFB0B012C0610861006118D
:100814008611D030FC00C930FD00FD0B0F2CFC0B01
:100824000F2C00000000CF0105304F0203186F2C7D
:10083400061406116730DD000030DE002330DF00CF
:100844000030E00029225B30FC00E730FD00FD0BA6
:10085400292CFC0B292C0000000006108615D4302E
:10086400DD00DE012330DF000030E00029225B30B0
:10087400FC00E730FD00FD0B3D2CFC0B3D2C000083
:100884000000861186142230DD000130DE002330A2
:10089400DF000030E00029225B30FC00E730FD007F
:1008A400FD0B522CFC0B522C000000008610061588
:1008B400C730DD000130DE002330DF000030E0000F
:1008C40029225B30FC00E730FD00FD0B672CFC0B9C
:1008D400672C00000000CF0A162CCF0106304F020F
:1008E4000318B02C86158619792C06117A2C061556
:1008F40006197E2C86107F2C86148618832C0610ED
:10090400842C0614AF30DD00DE015030DF000030EF
:10091400E00029223430FC00F130FD00FD0B902C66
:10092400FC0B902C00000000861186199B2C0611EC
:100934009C2C06150619A02C8610A12C861486184A
:10094400A52C0610A62C06149C30FC00D730FD0004
:0E095400FD0BAA2CFC0BAA2CCF0A702C08005D
:10096200831203132108220203186D2E2308031990
:100972006D2E2208F000F00D70107008273EDB008B
:1009820063230430F4000030F500FA227808F00006
:100992007908F1005B088400700880007108840AFD
:1009A2008000D00150082202031C742D5008F00070
:1009B200F00D70107008273EDB000A2D0614C730B8
:1009C200DD000130DE005030DF000030E00029227F
:1009D200462D86147730DD000130DE005030DF0016
:1009E2000030E0002922462D86152C30DD00013032
:1009F200DE005030DF000030E0002922462D0615CF
:100A0200E130DD00DE015030DF000030E00029225D
:100A1200462D5B0884000008F100840A0008F200F9
:100A220000307206031D172D003071060319DF2CEA
:100A32005B0884000008F100840A0008F20000301C
:100A42007206031D262D013071060319EA2C5B087C
:100A520084000008F100840A0008F20000307206E7
:100A6200031D352D023071060319F52C5B08840035
:100A72000008F100840A0008F20000307206031D2B
:100A8200442D033071060319002D0530FB00DF30C1
:100A9200FC00BB30FD00FD0B4C2DFC0B4C2DFB0B69
:100AA2004C2D0000000086118619592D06115A2D71
:100AB200061506195E2D86105F2D86148618632D85
:100AC2000610642D06140430FB00A830FC000B3025
:100AD200FD00FD0B6A2DFC0B6A2DFB0B6A2D00003D
:100AE2000000D00AD32C0830FB001B30FC0027305A
:100AF200FD00FD0B7A2DFC0B7A2DFB0B7A2DA50147
:100B0200A40125082202031C512E23080319512E89
:100B12002608031D2F2E2408031D2F2E061EB32D7B
:100B22000130A6000614C730DD000130DE0050306F
:100B3200DF000030E00029222508F000F00D7010DF
:100B42007008273E84000008F100840A0008F200C1
:100B520000307206031DAF2D003071060319B22D4D
:100B6200A3011D2E861ED72D0130A60086147730D4
:100B7200DD000130DE005030DF000030E0002922CD
:100B82002508F000F00D70107008273E8400000860
:100B9200F100840A0008F20000307206031DD32D12
:100BA200013071060319D62DA3011D2E861FFB2DC0
:100BB2000130A60086152C30DD000130DE005030F9
:100BC200DF000030E00029222508F000F00D70104F
:100BD2007008273E84000008F100840A0008F20031
:100BE20000307206031DF72D023071060319FA2D2B
:100BF200A3011D2E061F1D2E0130A6000615E13091
:100C0200DD00DE015030DF000030E000292225083F
:100C1200F000F00D70107008273E84000008F1000B
:100C2200840A0008F20000307206031D1A2E0330F7
:100C3200710603191D2EA301260803192E2E023058
:100C4200FB003830FC00AD30FD00FD0B262EFC0B06
:100C5200262EFB0B262E0130A400502E2608031947
:100C6200502E24080319502E061A502E861A502E82
:100C7200861B502E061B502EA601A401A50A0611A2
:100C82000619452E8611462E861586194A2E86107D
:100C92004B2E861486184F2E0610502E0614822DC7
:100CA2000830FB001B30FC002730FD00FD0B572EE7
:100CB200FC0B572EFB0B572EA20A0530FB00DF3030
:100CC200FC00BB30FD00FD0B642EFC0B642EFB0B05
:0A0CD200642E00000000B12C0800A1
:100CDC0083120313A201A5010130A300A601A401F4
:020CEC000800FE
:100CEE0083120313DB01DC010615061B8C2E033069
:100CFE00FC009730FD00FD0B822EFC0B822E0000B7
:100D0E000000DB0A0319DC0A7C2E06115B08E900E1
:080D1E005C08EA003A2008001D
:100D2600831203135B08D1005C08F1000130F00068
:100D360071080319A22EF00D7010FF3E9C2E70084C
:100D4600D700F0097008D60080305B078400700871
:0A0D56008005841370088005080072
:100D600022228A110A128000840AD90A0319DA0A97
:080D7000F003031DB02E080082
:100D7800033083120313A100A2010130A300A401D0
:100D8800A501A601F0308316860002308500831283
:100D98008601013085000530DB00DC0193267726CB
:100DA800B2230530FB000F30FC00F130FD00FD0BD5
:100DB800DB2EFC0BDB2EFB0BDB2EB12423080319E7
:100DC800272F2C30DD000130DE003C30DF00003002
:100DD800E00029229C30FC00D730FD00FD0BF22EEC
:100DE800FC0BF22EAE30DD000130DE003C30DF00BF
:100DF8000030E00029229C30FC00D730FD00FD0BBC
:100E0800032FFC0B032F6C30DD000230DE003C307A
:100E1800DF000030E00029229C30FC00D730FD00C4
:100E2800FD0B142FFC0B142FA201A5010130A30008
:100E3800A601A401A10AAB231E302102031C262F00
:100E48001E30A100422FAB2306142C30DD000130E8
:100E5800DE00FA30DF00E00129220330FB008A308F
:100E6800FC005530FD00FD0B372FFC0B372FFB0B1B
:100E7800372F0000000006106E26AB23D32E432F19
:02400E0071211E
:00000001FF
