:020000005E2E72
:10000600831203132230FC00F801F901FA01FB0107
:10001600FC03031939280310FB0CFA0CF90CF80C35
:10002600F30CF20CF10CF00C031C0B28FC03031967
:100036002B287408F80775080318750FF907760852
:100046000318760FFA0777080318770FFB070F28B0
:100056007408F80775080318750FF907760803186A
:0E006600760FFA0777080318770FFB070800DC
:10007400831203135508BE005608BF00C001C10116
:060084000130C400080079
:10008A00710DF80DF90D7408F8027508031C750F47
:10009A00F902F00DF10D0F30FC00710DF80DF90D9C
:1000AA007408701C5E28F8027508031C750FF902A3
:1000BA006328F80775080318750FF907F00DF10D95
:1000CA00FC0B522870186F287408F8077508031873
:0800DA00750FF9070000080092
:1000E200A03083120313F0000F30F100F201F3018C
:0200F200080004
:1000F40083120313F801F9011030FC00710DF80D9F
:10010400F90D7408F8027508031C750FF902031839
:1001140092287408F80775080318750FF907031077
:0A012400F00DF10DFC0B802808001F
:10012E0083120313D503D5035508003C0318A428E6
:10013E00D5030000000000009B2800000000000016
:06014E00000000000800A3
:1001540083120313FB01FA01F901F801A001730DE5
:10016400F80D7408F8027508031C750FF902760877
:10017400031C760FFA027708031C770FFB020001B9
:10018400031C0130A002F30D0730FC00730DF80DC1
:10019400F90DFA0DFB0DA00D7408731CE328F80289
:1001A4007508031C750FF9027608031C760FFA0212
:1001B4007708031C770FFB020001031C0130A00227
:1001C400F428F80775080318750FF907760803185B
:1001D400760FFA0777080318770FFB070001031857
:1001E4000130A007F30DFC0BC828720DF80DF90DB2
:1001F400FA0DFB0DA00D7408731C1229F802750882
:10020400031C750FF9027608031C760FFA027708AF
:10021400031C770FFB020001031C0130A0022329F9
:10022400F80775080318750FF90776080318760F91
:10023400FA0777080318770FFB070001031801304A
:10024400A007F20D0730FC00720DF80DF90DFA0D40
:10025400FB0DA00D7408721C4129F8027508031CDB
:10026400750FF9027608031C760FFA027708031C4F
:10027400770FFB020001031C0130A0025229F8078A
:1002840075080318750FF90776080318760FFA072F
:1002940077080318770FFB07000103180130A00744
:1002A400F20DFC0B2629710DF80DF90DFA0DFB0D5D
:1002B400A00D7408721C7029F8027508031C750FD0
:1002C400F9027608031C760FFA027708031C770FED
:1002D400FB020001031C0130A0028129F807750804
:1002E4000318750FF90776080318760FFA077708CD
:1002F4000318770FFB07000103180130A007F10D65
:100304000730FC00710DF80DF90DFA0DFB0DA00D71
:100314007408711C9F29F8027508031C750FF902F3
:100324007608031C760FFA027708031C770FFB028A
:100334000001031C0130A002B029F8077508031856
:10034400750FF90776080318760FFA07770803186C
:10035400770FFB07000103180130A007F10DFC0B18
:100364008429700DF80DF90DFA0DFB0DA00D74081C
:10037400711CCE29F8027508031C750FF902760862
:10038400031C760FFA027708031C770FFB020001A7
:10039400031C0130A002DF29F80775080318750F44
:1003A400F90776080318760FFA0777080318770F0A
:1003B400FB07000103180130A007F00D0730FC0013
:1003C400700DF80DF90DFA0DFB0DA00D7408701CDD
:1003D400FD29F8027508031C750FF9027608031C41
:1003E400760FFA027708031C770FFB020001031C47
:1003F4000130A0020E2AF80775080318750FF907D3
:1004040076080318760FFA0777080318770FFB07A7
:10041400000103180130A007F00DFC0BE22970184D
:10042400212A7408F80775080318750FF907760868
:100434000318760FFA0777080318770FFB070800ED
:0E0444008312031346088A0045088200080050
:100452007120E830F4000330F500F601F7010320C3
:100462007008D1007108D2007208D3007308D4005A
:100472004908F4004A08F500F601F701AA207008BD
:10048200D1007108D2007208D3007308D40070083A
:10049200F5007108F6007208F7007308F800F80C0E
:1004A200F70CF60CF50CF813F80CF70CF60CF50C2F
:1004B200F8137508F0007608F1007708F200780862
:1004C200F300F30CF20CF10CF00CF3137008CD00F6
:1004D2007108CE0071204B08F4004C08F500F601BB
:1004E200F70103204D08F9004E08FA00FB01FC0158
:1004F2000330F8007908F4007A08F5007B08F6006A
:100502007C08F700780803198D2AF40DF50DF60D15
:10051200F70D7410FF3E842AAA207008D1007108DA
:10052200D2007208D3007308D4000A30F4000030FD
:10053200F5004D08F0004E08F1007A207008CD0059
:100542007108CE0000307102031DA92A0330700227
:100552000318AC2AF92A3D0884005408003C031D04
:10056200BC2A5308003C031DBC2A5208003C031D50
:10057200BC2A5108003C0318F72A430880044E089D
:100582000319D32ACF01D00100305002031DCB2A18
:100592004E084F020318D32AD5019720CF0A031918
:1005A200D00AC52A4D08D5009720420880054E087A
:1005B2000319EB2ACF01D00100305002031DE32AB8
:1005C2004E084F020318EB2AD5019720CF0A0319D0
:1005D200D00ADD2A4D08D50097200130D102031C34
:1005E200D202031CD302031CD402AE2A42088005A5
:0205F2000800FF
:1005F400831203137408003A031D092B7508003A8B
:10060400031D092BFF30F0007F30F100622B8312B1
:100614000313FD01F901F801710870040319003492
:1006240071087506FA00FA1BFD09FB01F51F1F2B63
:10063400F409F509F40A0319F50AF11F262BF00948
:10064400F109F00A0319F10A71087504FA00FA1B9A
:100654003B2B45207B184E2BFD1F0034F009F1097C
:10066400F00A0319F10AF809F909F80A0319F90A51
:100674000034F51F4A2BF11B462B7108F900700852
:10068400F800F101F0012E2BF101F001F00A003421
:10069400F109F009FB0A2B2BF80A0319F90A74086B
:1006A4007802031D2E2B75087902031D2E2BF901E8
:1006B400F801F00A0319F10AF11F2E2B0000FF3490
:0206C40008002C
:1006C600831203134408031D6D2B0130D50000303F
:1006D600D6003A203E08F0003F08F1004008F2003C
:1006E6004108F3006D30F4004E30F500C630F600D8
:1006F6004130F70003203930F5003030F600F701BD
:10070600F8017008F50771080318710FF6077208EB
:100716000318720FF70773080318730FF8077708A3
:10072600F0007808F1000030F81BFF30F200F3000B
:10073600FF30F0057F30F1050030F205F305700853
:10074600BE007108BF007208C0007308C10008002F
:0E075600831203130610861106118610080088
:10076400033083120313FB008A30FC005530FD0074
:10077400FD0BBA2BFC0BBA2BFB0BBA2B00000000B1
:1007840006148614061186118430C900CA0120306B
:10079400CB000330CC0029220530FB000F30FC00D5
:1007A400F130FD00FD0BD42BFC0BD42BFB0BD42B15
:1007B40006108610061586154630C9000030CA009A
:1007C400E830CB000330CC0029220630FB00133084
:1007D400FC00AD30FD00FD0BED2BFC0BED2BFB0BFA
:1007E400ED2B000000000614861406158615B4309F
:1007F400C900CA01B030CB000430CC002922073034
:10080400FB001730FC006A30FD00FD0B072CFC0BCD
:10081400072CFB0B072C000006108610061186110E
:100824000330FB004930FC006630FD00FD0B182C42
:10083400FC0B182CFB0B182C0000BB0105303B02F1
:1008440003186D2C061406112930C9000030CA00A3
:10085400B430CB00CC012922EA30FC00C330FD00C7
:10086400FD0B322CFC0B322C061086155530C900BA
:100874000030CA00B430CB00CC012922EA30FC009D
:10088400C330FD00FD0B442CFC0B442C8611861454
:100894007430C9000030CA00B430CB00CC01292226
:1008A400EA30FC00C330FD00FD0B562CFC0B562C2B
:1008B40086100615B630C900CA01B430CB00CC018D
:1008C4002922EA30FC00C330FD00FD0B672CFC0B31
:1008D400672CBB0A202CBB0106303B020318B32C47
:1008E40086158619772C0611782C061506197C2C8A
:1008F40086107D2C86148618812C0610822C0614F2
:100904004630C9000030CA009030CB000130CC0022
:1009140029228230FC00DD30FD00FD0B8F2CFC0B06
:100924008F2C00000000861186199A2C06119B2C2E
:10093400061506199F2C8610A02C86148618A42C44
:100944000610A52C06140230FB008630FC009930FA
:10095400FD00FD0BAB2CFC0BAB2CFB0BAB2CBB0A37
:040964006E2C0800ED
:1009680083120313210822020318112E23080319E6
:10097800112E2208273EC70063230430F4000030FC
:10098800F500FA227808F0007908F1004708840099
:1009980070088000BC013C082202031C472D3C085B
:1009A800273EC700012D0614B630C900CA012C30F5
:1009B800CB000130CC002922192D86149630C900AD
:1009C800CA012C30CB000130CC002922192D861504
:1009D8007830C9000030CA002C30CB000130CC0080
:1009E8002922192D06155A30C9000030CA002C30AA
:1009F800CB000130CC002922192D470884000008BB
:100A0800003A0319D72C470884000008013A031953
:100A1800E12C470884000008023A0319EB2C470828
:100A280084000008033A0319F62C0630FB00133043
:100A3800FC00AD30FD00FD0B1F2DFC0B1F2DFB0B2B
:100A48001F2D00000000861186192C2D06112D2D52
:100A580006150619312D8610322D86148618362D66
:100A68000610372D06140330FB008A30FC00553081
:100A7800FD00FD0B3D2DFC0B3D2DFB0B3D2D00001E
:100A88000000BC0ACF2C1030FB003930FC000D30C0
:100A9800FD00FD0B4D2DFC0B4D2DFB0B4D2D0000CE
:100AA8000000A501A40125082202031CF32D230838
:100AB8000319F32D2608031DD12D2408031DD12D5C
:100AC800061E7A2D0130A6000614B630C900CA01E8
:100AD8002C30CB000130CC0029222508273E840089
:100AE8000008003A0319792DA301BD2D861E902D0B
:100AF8000130A60086149630C900CA012C30CB00FC
:100B08000130CC0029222508273E84000008013A3C
:100B180003198F2DA301BD2D861FA72D0130A60017
:100B280086157830C9000030CA002C30CB0001305F
:100B3800CC0029222508273E84000008023A031920
:100B4800A62DA301BD2D061FBD2D0130A60006153B
:100B58005A30C9000030CA002C30CB000130CC001C
:100B680029222508273E84000008033A0319BD2DD1
:100B7800A30126080319D02D0330FB008A30FC009E
:100B88005530FD00FD0BC62DFC0BC62DFB0BC62DED
:100B9800000000000130A400F22D26080319F22DF0
:100BA80024080319F22D061AF22D861AF22D861B37
:100BB800F22D061BF22DA601A401A50A061106199D
:100BC800E72D8611E82D86158619EC2D8610ED2D5A
:100BD80086148618F12D0610F22D0614572D1030A4
:100BE800FB003930FC000D30FD00FD0BF92DFC0B2E
:100BF800F92DFB0BF92D00000000A20A0B30FB00B9
:100C08002630FC005D30FD00FD0B082EFC0B082E85
:0C0C1800FB0B082E00000000B42C0800AC
:100C240083120313A201A5010130A300A601A401AC
:020C34000800B6
:100C360083120313C701C8010614061A2E2E0230AA
:100C4600FC004B30FD00FD0B262EFC0B262EC70AA2
:100C56000319C80A202E06104708D5004808D600F2
:040C66003A20080028
:100C6A00831203134708BD004808F1000130F00061
:100C7A0071080319442EF00D7010FF3E3E2E7008C5
:100C8A00C300F0097008C20080304707840070086A
:0A0C9A00800584137008800508002F
:100CA40022228A110A128000840AC50A0319C60A7C
:080CB400F003031D522E08009D
:100CBC00033083120313A100A2010130A300A4018D
:100CCC00A501A601F0308316860002308500831240
:100CDC008601013085000530C700C80135261B266A
:100CEC00B2231A30FB005E30FC006E30FD00FD0BB1
:100CFC007D2EFC0B7D2EFB0B7D2E0000B4242308D7
:100D0C000319D52E4630C9000030CA002C30CB0058
:100D1C000130CC0029220230FB008630FC009930D7
:100D2C00FD00FD0B972EFC0B972EFB0B972E6430C2
:100D3C00C9000030CA002C30CB000130CC00292275
:100D4C000230FB008630FC009930FD00FD0BAC2E10
:100D5C00FC0BAC2EFB0BAC2E8230C900CA012C3024
:100D6C00CB000130CC0029220230FB008630FC0085
:100D7C009930FD00FD0BC02EFC0BC02EFB0BC02EC2
:100D8C00A201A5010130A300A601A401A10AAB2375
:100D9C001E302102031CD42E1E30A100E02E463042
:100DAC00C9000030CA00E830CB000330CC00292247
:080DBC001226AB23752EE12E77
:02400E006A2125
:00000001FF
