:02000000D92AFB
:1000060083120313F801F9011030FC00710DF80D8D
:10001600F90D7408F8027508031C750FF902031828
:100026001B287408F80775080318750FF9070310DD
:0A003600F00DF10DFC0B0928080085
:10004000403083120313F0001F30F100F201F3017E
:020050000800A6
:1000520083120313B203B2033208003C031836289A
:10006200B2030000000000002D2800000000000084
:0600720000000000080080
:1000780083120313FB01FA01F901F801A001730DC2
:10008800F80D7408F8027508031C750FF902760854
:10009800031C760FFA027708031C770FFB02000196
:1000A800031C0130A002F30D0730FC00730DF80D9E
:1000B800F90DFA0DFB0DA00D7408731C7528F802D4
:1000C8007508031C750FF9027608031C760FFA02EF
:1000D8007708031C770FFB020001031C0130A00204
:1000E8008628F80775080318750FF90776080318A6
:1000F800760FFA0777080318770FFB070001031834
:100108000130A007F30DFC0B5A28720DF80DF90DFC
:10011800FA0DFB0DA00D7408731CA428F8027508CD
:10012800031C750FF9027608031C760FFA0277088C
:10013800031C770FFB020001031C0130A002B52845
:10014800F80775080318750FF90776080318760F6E
:10015800FA0777080318770FFB0700010318013027
:10016800A007F20D0730FC00720DF80DF90DFA0D1D
:10017800FB0DA00D7408721CD328F8027508031C27
:10018800750FF9027608031C760FFA027708031C2C
:10019800770FFB020001031C0130A002E428F807D6
:1001A80075080318750FF90776080318760FFA070C
:1001B80077080318770FFB07000103180130A00721
:1001C800F20DFC0BB828710DF80DF90DFA0DFB0DA9
:1001D800A00D7408721C0229F8027508031C750F1B
:1001E800F9027608031C760FFA027708031C770FCA
:1001F800FB020001031C0130A0021329F80775084F
:100208000318750FF90776080318760FFA077708A9
:100218000318770FFB07000103180130A007F10D41
:100228000730FC00710DF80DF90DFA0DFB0DA00D4E
:100238007408711C3129F8027508031C750FF9023E
:100248007608031C760FFA027708031C770FFB0267
:100258000001031C0130A0024229F80775080318A1
:10026800750FF90776080318760FFA077708031849
:10027800770FFB07000103180130A007F10DFC0BF5
:100288001629700DF80DF90DFA0DFB0DA00D740867
:10029800711C6029F8027508031C750FF9027608AD
:1002A800031C760FFA027708031C770FFB02000184
:1002B800031C0130A0027129F80775080318750F8F
:1002C800F90776080318760FFA0777080318770FE7
:1002D800FB07000103180130A007F00D0730FC00F0
:1002E800700DF80DF90DFA0DFB0DA00D7408701CBA
:1002F8008F29F8027508031C750FF9027608031C8C
:10030800760FFA027708031C770FFB020001031C23
:100318000130A002A029F80775080318750FF9071E
:1003280076080318760FFA0777080318770FFB0784
:10033800000103180130A007F00DFC0B7429701898
:10034800B3297408F80775080318750FF9077608B4
:100358000318760FFA0777080318770FFB070800CA
:10036800831203132230FC00F801F901FA01FB01A2
:10037800FC030319EA290310FB0CFA0CF90CF80C1E
:10038800F30CF20CF10CF00C031CBC29FC03031950
:10039800DC297408F80775080318750FF90776083B
:1003A8000318760FFA0777080318770FFB07C02999
:1003B8007408F80775080318750FF9077608031805
:0E03C800760FFA0777080318770FFB07080077
:1003D6002020E830F4000330F500F601F701B421DF
:1003E6007008AE007108AF007208B0007308B10063
:1003F6002608F4002708F500F601F7013C207008EE
:10040600AE007108AF007208B0007308B100700842
:10041600F5007108F6007208F7007308F800F80C8A
:10042600F70CF60CF50CF813F80CF70CF60CF50CAB
:10043600F8137508F0007608F1007708F2007808DE
:10044600F300F30CF20CF10CF00CF3137008AA0095
:100456007108AB0020202808F4002908F500F601F1
:10046600F701B4212A08F9002B08FA00FB01FC0168
:100476000330F8007908F4007A08F5007B08F600E6
:100486007C08F700780803194F2AF40DF50DF60DD0
:10049600F70D7410FF3E462A3C207008AE00710826
:1004A600AF007208B0007308B1000A30F4000030E3
:1004B600F5002A08F0002B08F10003207008AA00B6
:1004C6007108AB0000307102031D6B2A0330700205
:1004D60003186E2ABB2A250884003108003C031D38
:1004E6007E2A3008003C031D7E2A2F08003C031D8F
:1004F6007E2A2E08003C0318B92A230880042B08FC
:100506000319952AAC01AD0100302D02031D8D2A79
:100516002B082C020318952AB2012920AC0A0319CC
:10052600AD0A872A2A08B2002920240880052B084C
:100536000319AD2AAC01AD0100302D02031DA52A19
:100546002B082C020318AD2AB2012920AC0A031984
:10055600AD0A9F2A2A08B20029200130AE02031CE8
:10056600AF02031CB002031CB102702A24088005E6
:0205760008007B
:10057800831203132608A5002708F1000130F000B4
:1005880071080319CB2AF00D7010FF3EC52A7008B8
:10059800A300F0097008A4008030260784007008C2
:0A05A8008005841370088005080028
:1005B2000230831603138500831285010530A600DD
:1005C200A701BC226430A6000030A7002C30A8008E
:1005D2000130A900EB210630FB001330FC00AD30E6
:1005E200FD00FD0BF22AFC0BF22AFB0BF22A0000A3
:1005F2000000C830A600A7012C30A8000130A900D5
:10060200EB210630FB001330FC00AD30FD00FD0B8A
:10061200082BFC0B082BFB0B082B00000000903072
:10062200A6000130A7002C30A8000130A900EB2160
:100632000630FB001330FC00AD30FD00FD0B1F2B1C
:10064200FC0B1F2BFB0B1F2B000000002030A60011
:100652000330A7002C30A8000130A900EB210B3099
:10066200FB002630FC005D30FD00FD0B362BFC0B41
:0E067200362BFB0B362B00000000E32A3F2B3B
:02400E006A2125
:00000001FF
